:1000000014C02CC02BC02AC029C028C027C026C0BD
:1000100025C024C023C022C021C02CC01FC01EC0C8
:100020001DC01CC01BC01AC019C011241FBECFEDBB
:10003000CDBF10E0A0E6B0E0E8E4F7E002C0059034
:100040000D92A437B107D9F720E0A4E7B0E001C0D2
:100050001D92AB38B207E1F7CFD174C3D1CF00976F
:1000600041F0E9EFF0E03197F1F700C000000197AF
:10007000F6CF08951F920F920FB60F9211245F933F
:100080006F937F938F939F93AF93BF93EF93FF9360
:1000900082B3807C82BBE0918A00F0E0E458FF4F9D
:1000A000808188BB80918A00823091F040F488235F
:1000B00069F08130C9F492E092BB98B311C08430EA
:1000C00059F040F0853081F480E20DC081E00BC032
:1000D00084E009C088E007C080E182BB98B381E07A
:1000E000892788BB01C082BB80918A0090E001967D
:1000F00066E070E014D380938A00FF91EF91BF9186
:10010000AF919F918F917F916F915F910F900FBEF3
:100110000F901F901895D19A8BB383608BBB089575
:10012000D09A28E0D9989BB387FF02C0916001C0A4
:100130009E7F9BBBD99A880F2150A1F7D998D09860
:10014000D89AD99A89B3D998809581700895282F23
:10015000D098D89A98E080E0880FD998D99AC89911
:1001600081609150C9F7D998D09A9BB3222311F09E
:100170009E7F01C091609BBBD99AD998D098D89A9C
:10018000089584E690E06BDFD09A8BB383608BBBDD
:10019000D898D99880E7C4DF81E7C2DF81E0D7DF54
:1001A000D09AD998D898D99AD89A0895EF92FF9270
:1001B0000F931F93CF93DF93CDB7DD27C650CDBFED
:1001C000D09A8BB383608BBBD898D99880E7A8DF8F
:1001D000882309F47AC08CEAA3DF83E3A1DF80E0FF
:1001E0009FDFD09AD998D898D99AD89A80E590E08C
:1001F00036DFD09A8BB383608BBBD898D99881E7D0
:100200008FDF882309F461C08E010F5F1F4F7E01CD
:1002100086E0E80EF11C81E09ADFF80181938F01FE
:10022000EE15FF05C1F780E092DF8E83D09AD99852
:10023000D898D99AD89A898187FD4CC02C818A8117
:1002400090E0A0E0B0E0AC01BD018CE0440F551F90
:10025000661F771F8A95D1F79B81892F90E0A0E0D8
:10026000B0E034E0880F991FAA1FBB1F3A95D1F761
:10027000842B952BA62BB72B322F32953F70832BD7
:100280008093820090938300A0938400B0938500B4
:100290004D815E8154274527542760E070E02F7020
:1002A000622B409386005093870060938800709380
:1002B0008900892B8A2B8B2B31F481E0452B462B2F
:1002C000472B49F407C081E006C0D09AD998D89846
:1002D000D99AD89A80E0CA5FCDBFDF91CF911F91A4
:1002E0000F91FF90EF900895ECE7F0E081E08083BC
:1002F0008183828383838483858388EE93E0AFCE7A
:10030000CF93DF939C01FB018D599F4F8B34944019
:1003100040F08FEF80937F00809380008093810076
:1003200038C037FF12C08FED80938100882799274E
:10033000821B930B6AE070E0F2D1DB01A859BF4F3A
:100340002C9120938000DC011FC0C90164E670E09D
:10035000E6D16115710529F0DB01A859BF4F8C91D9
:1003600001C08FEF80938100CAE0D0E0C901BE01D7
:10037000D6D19C01CB01BE01D2D1DC01A859BF4F1F
:100380008C9180938000D901A859BF4F8C918093A4
:100390007F00E83E83E0F80740F08FEF80937C0019
:1003A00080937D0080937E0024C0CF0164E670E0DE
:1003B000A2D16115710529F0DB01A859BF4F8C91BD
:1003C00001C08FEF80937E00CAE0D0E0CF01BE0174
:1003D00092D19C01CB01BE018ED1FC01E859FF4FA7
:1003E000808180937D00F901E859FF4F80818093DF
:1003F0007C00DF91CF910895CFEFC7BB8FEB81BB1E
:1004000080E482BB82E080BF83BF8DE786BF81E04E
:1004100089BF81DE84E690E022DEB3DE7894C0936B
:100420007C00C0937D00C0937E0085E480938100B2
:1004300087ED80937F0080938000A12CB12C00E099
:1004400010E0F12C712CC12CD12CC0E0D0E05CE08C
:10045000252E5EEF352E6CED462E65E0562E78EE9D
:10046000872E73E0972E66246394EE24EA9486998F
:1004700038C00F5F1F4F81EE94E00197F1F700C085
:10048000000071100AC00A301105B0F160927B00C3
:10049000A12CB12CF12C77247394083C110560F148
:1004A000309267002092660050926500409264008E
:1004B00010927A001092790090926300809262000C
:1004C00013DF10927B00869907C081EE94E00197BC
:1004D000F1F700C00000F7CF00E010E042E0F42E9A
:1004E0000AC0711006C0083C110530F000E010E0B1
:1004F00003C000E010E0712C8091760090917700AD
:1005000001969093770080937600499708F469C02C
:100510004DDE882309F45FC01092610020ED37E0C2
:1005200040E050E0609186007091870080918800E3
:1005300090918900C7D0DC01CB0124E1B695A79545
:10054000979587952A95D1F7EC01C45FD14028EEA5
:1005500033E040E050E06091820070918300809130
:10056000840090918500AED0AB01BC0134E176955A
:100570006795579547953A95D1F76A01809166003E
:10058000909167008C179D0724F4D0936700C09367
:1005900066008091640090916500C817D90724F423
:1005A000D0936500C09364008091790090917A00A7
:1005B0008C159D0520F450937A004093790080912A
:1005C000620090916300C816D90638F45093630016
:1005D0004093620002C06092610010927700109216
:1005E000760091E09F1590F08FEFA81AB80A94E674
:1005F000A916B10458F0F39481E0F81611F080E0E8
:1006000001C082E080937B00A12CB12C809161001D
:10061000882391F1809174009091750001969093D8
:10062000750080937400C29708F445C0E0927C0086
:10063000E0927D00E0927E00E0927F00E0928000F8
:10064000E092810080916000E82FF0E0E458FF4FD5
:100650009FED908390917800911102C02FEF01C01F
:1006600021E0820F80936000882311F08530F9F437
:100670009625909378001BC080917B008823A1F081
:10068000813049F46091790070917A008091660020
:10069000909167000BC0609162007091630080913F
:1006A00064009091650002C0B601CE0129DE10926F
:1006B00075001092740089EF90E00197F1F700C087
:1006C0000000D5CEEE27FF27AA27BB2708C0A20F20
:1006D000B31FE41FF51F220F331F441F551F9695AC
:1006E00087957795679598F37040A9F7009799F7E4
:1006F000BD01CF010895AA1BBB1B51E107C0AA1F72
:10070000BB1FA617B70710F0A61BB70B881F991FB2
:100710005A95A9F780959095BC01CD01089597FB56
:10072000072E16F4009406D077FD08D0E4DF07FC0E
:1007300005D03EF4909581959F4F089570956195F1
:080740007F4F0895F894FFCFEC
:100748000501E803DC050CFE21BB15198B49412B7B
:040758000109DF00B4
:00000001FF
